:1000000060720020B5590000B3590000B3590000D8
:1000100000000000000000000000000000000000E0
:10002000000000000000000000000000D51F0000DC
:100030000000000000000000B1200000F5200000DA
:10004000B3590000B3590000B3590000B359000080
:100050004D410000B3590000B3590000B3590000EE
:10006000B3590000B9460000C9460000D946000057
:10007000E9460000F946000009470000B3590000B6
:10008000B3590000B35900007556000085560000B2
:1000900095560000A5560000B5560000B359000063
:1000A000B3590000B3590000B3590000B359000020
:1000B0000000000010B5064C2378002B07D1054B3B
:1000C000002B02D0044800E000BF0123237010BDC4
:1000D00030010020000000004C350100084B10B535
:1000E000002B03D00749084800E000BF0748036819
:1000F000002B00D110BD064B002BFBD09847F9E731
:1001000000000000340100204C3501004C35010096
:100110000000000030B585B004000023039305689B
:100120002F4B98472B79002B56D101332B712D4B38
:1001300098479F2201AB1A706279D10900230029E8
:1001400004D15309DB0128498C4663441F21114027
:1001500001228A405A61012201A92068234B984755
:100160000023032203A92068214DA8476279D10901
:100170000023002904D15309DB011B498C46634449
:100180001F21114001228A409A61002322681371C5
:100190002379092B15D89B00164AD3589F46164B36
:1001A00012E0164B10E0164B0EE0164B0CE0164B0F
:1001B0000AE0164B08E0164B06E0164B04E0164B1F
:1001C00002E0002300E0154B039A9A4202D014206B
:1001D00005B030BD0020FBE7024B98470520F7E74C
:1001E000594000009940000000440041211B0000DC
:1001F000051A00002CF000001F4300001F440100FE
:100200001F4502001F4501001F4602001F46030054
:100210001F8600001F4701001F4800001F650000E7
:10022000F0B585B004000E0001921F005A18037942
:10023000092B15D89B003249CB589F468023DB02FF
:1002400012E080231B030FE080235B030CE080237C
:100250009B0309E08023DB0306E080231B0403E00B
:10026000002301E080235B0217209A4201D905B0E8
:10027000F0BD2568234B98472B79002B3CD10133E7
:100280002B71214B98470B2302AA1370D670330AA7
:100290009370360C56706279D1090023002904D17D
:1002A0005309DB0119498C4663441F211140012287
:1002B0008A405A61052202A92068154B9847002FF1
:1002C00013D16279D1090023002904D15309DB013C
:1002D0000E498C4663441F21114001228A409A61D5
:1002E000236800221A710020C1E700233A00019917
:1002F0002068084DA847E4E7034B98470520B6E778
:1003000054F00000594000009940000000440041B2
:10031000211B0000051A0000F0B5DE4657464E4688
:100320004546E0B585B005000E0001921F005A1841
:100330000379092B15D89B00AE49CB589F468023E3
:10034000DB0212E080231B030FE080235B030CE041
:1003500080239B0309E08023DB0306E080231B044A
:1003600003E0002301E080235B0217209A4206D9B4
:1003700005B03CBC90469946A246AB46F0BD2C6801
:100380009D4B98472379002B00D02EE10133237138
:100390009A4B9847062302AA13706A79D109002361
:1003A000002904D15309DB0195498C4663441F2180
:1003B000114001228A405A61012202A92868914B0A
:1003C00098476A79D1090023002904D15309DB0138
:1003D0008B498C4663441F21114001228A409A6157
:1003E000FF22324080235B009B1A1A1C9BB2BB4247
:1003F00000D93A1C93B29A46022302AA1370D6700F
:10040000330A9370330C53706A79D10900230029A1
:1004100004D15309DB017A498C4663441F21114002
:1004200001228A405A61042202A92868754B984724
:100430005346002B45D16A79D1090023002904D104
:100440005309DB016E498C4663441F211140012290
:100450008A409A612B68196801220B7E1342FCD0F6
:100460006A79D1090023002904D15309DB016449C9
:100470008C4663441F21114001228A405A612B6837
:100480001B681A7ED20701D505229A622868026885
:100490000421137E0B42FCD0137E00245B0709D598
:1004A000538B5B0701D5042353838379012B0ED033
:1004B000946AE4B20121002398460420B4462E0039
:1004C00010E05246019928684E4B9847B3E7936A6B
:1004D000DB05DC0DEEE7AB79012B1AD0946AE4B2B0
:1004E00021421AD033681A68137E0B42FCD0137E67
:1004F0000B4201D04346936235682A68137E03425B
:10050000FCD0137E0342EBD0538B0342E3D05083E5
:10051000E1E7946AE405E40DE2E7350066466A79AE
:10052000D1090023002904D15309DB0134498C4649
:1005300063441F21114001228A409A611020A306C2
:100540004FD45346FF1ABBB21900019A91460020BE
:10055000002B46D01F239B4601242A4B9846534626
:1005600001938A4658E01A0049462868254B984767
:10057000A4E0906AC005C00DE1E0BB79012B1AD060
:10058000906AC0B204421AD02B681A68137E2342C4
:10059000FCD0137E234201D0002393622F683A6877
:1005A000137E0B42FCD0137E0B42EBD0538B0B42DD
:1005B000E3D05183E1E7906AC005C00DE2E76B79B3
:1005C000D9090022002904D15A09D2010C498C46CC
:1005D000624459460B40210099409161830613D52E
:1005E00010202B6800221A71C2E6044B98470520A0
:1005F000BEE6C04680F0000059400000994000006F
:1006000000440041211B00005346019A9B1A9BB2F3
:100610009A46002B00D194E002AB06221A706B7947
:10062000D9090022002904D15A09D20146498C4631
:10063000624459460B40210099405161220002A9B1
:100640002868C0476B79D9090022002904D15A09CA
:10065000D2013D498C46624459460B4021009940E5
:100660009161019A94466644E144574680235B00B9
:100670009A4501D9354B1F88BBB20193022302AAC8
:100680001370D670330A9370330C53706B79D90999
:100690000022002904D15A09D2012B498C46624418
:1006A00059460B40210099405161042202A9286853
:1006B000274B9847019B002B00D054E76B79D90951
:1006C0000022002904D15A09D2011F498C466244F4
:1006D00059460B402100994091612B681A68137E9E
:1006E0002342FCD06B79D9090022002904D15A0990
:1006F000D20115498C46624459460B40210099406D
:1007000051612B681B681A7E224201D005229A6231
:100710002B689C461A680421137E0B42FCD0137E82
:1007200000205B070BD5538B5B0701D50423538354
:1007300063469B79012B00D11BE7906AC0B204216C
:1007400022E700204DE7C046004400417CF0000055
:10075000211B0000F0B583B004000E0015000379E2
:10076000092B00D9F2E09B007B4AD3589F46802397
:10077000DB0210E080231B030DE080235B030AE013
:1007800080239B0307E08023DB0304E080231B041A
:1007900001E080235B021720B34201D803B0F0BD13
:1007A00027686E4B98473B79002B00D0D0E001338F
:1007B0003B716B4B984706236A4613706279D109E7
:1007C0000023002904D15309DB0166498C466344A8
:1007D0001F21114001228A405A6101226946206886
:1007E000614B98476279D1090023002904D153094C
:1007F000DB015C498C4663441F21114001228A4081
:100800009A61012D06D0002D63D0D823022D02D08D
:10081000002300E052236A461370D670330A9370A7
:10082000360C56706279D1090023002904D153098E
:10083000DB014C498C4663441F21114001228A4050
:100840005A61042269462068474B98476279D1096A
:100850000023002904D15309DB0142498C4663443B
:100860001F21114001228A409A61236819680122E0
:100870000B7E1342FCD06279D1090023002904D1F8
:100880005309DB0137498C4663441F211140012283
:100890008A405A6123681B681A7ED20701D5052257
:1008A0009A62206802680421137E0B42FCD0137EFA
:1008B00000255B0709D5538B5B0701D504235383C0
:1008C0008379012B07D0956AEDB20121002704201E
:1008D0000CE020239FE7956AED05ED0DF5E7B37970
:1008E000012B19D0956AEDB2294219D023681A68F4
:1008F000137E0B42FCD0137E0B4200D09762266819
:100900003268137E0342FCD0137E0342ECD0538B3B
:100910000342E4D05083E2E7956AED05ED0DE3E78D
:100920006279D1090023002904D15309DB010D4963
:100930008C4663441F21114001228A409A61A80617
:10094000C00F0001236800221A7127E7172025E74E
:10095000034B9847052021E7A8F00000594000000C
:100960009940000000440041211B000070B582B096
:1009700004000D000668354B98473379002B60D191
:1009800001333371324B984706236A4613706279FC
:10099000D1090023002904D15309DB012D498C46DC
:1009A00063441F21114001228A405A610122694695
:1009B0002068294B98476279D1090023002904D186
:1009C0005309DB0123498C4663441F211140012256
:1009D0008A409A613C236A1E95416D422B406A46CB
:1009E000D37101236A4613706279D109002300296B
:1009F00004D15309DB0117498C4663441F21114080
:100A000001228A405A61012269462068124DA84796
:100A100001226B46D91D2068A8476279D1090023BD
:100A2000002904D15309DB010A498C4663441F2184
:100A3000114001228A409A61236800221A71002025
:100A400002E0034B9847052002B070BD59400000FA
:100A50009940000000440041211B0000F0B583B024
:100A600004000E0015000379092B00D97FE09B00DC
:100A7000424AD3589F468023DB0210E080231B03A9
:100A80000DE080235B030AE080239B0307E08023C3
:100A9000DB0304E080231B0401E080235B021720BA
:100AA000B34201D803B0F0BD2768354B98473B7976
:100AB000002B5ED101333B71324B984706236A46C7
:100AC00013706279D1090023002904D15309DB0195
:100AD0002D498C4663441F21114001228A405A61EE
:100AE000012269462068294B98476279D109002381
:100AF000002904D15309DB0123498C4663441F219B
:100B0000114001228A409A613623002D00D103331F
:100B10006A461370D670330A9370360C5670627939
:100B2000D1090023002904D15309DB0116498C4661
:100B300063441F21114001228A405A610422694600
:100B40002068124B98476279D1090023002904D10B
:100B50005309DB010C498C4663441F2111400122DB
:100B60008A409A61236800221A7100209AE71720B0
:100B700098E7044B9847052094E7C046D0F0000062
:100B8000594000009940000000440041211B000032
:100B900030B583B0040005681C4B98472B79002BB7
:100BA0002ED101332B711A4B9847B9236A46137023
:100BB0006279D1090023002904D15309DB011549C9
:100BC0008C4663441F21114001228A405A61012250
:100BD00069462068104B98476279D10900230029A3
:100BE00004D15309DB010B498C4663441F2111409A
:100BF00001228A409A61236800221A71002002E0D3
:100C0000034B9847052003B030BDC0465940000053
:100C10009940000000440041211B000030B583B022
:100C2000040005681C4B98472B79002B2ED101330B
:100C30002B711A4B9847AB236A4613706279D1091E
:100C40000023002904D15309DB0115498C46634474
:100C50001F21114001228A405A6101226946206801
:100C6000104B98476279D1090023002904D1530918
:100C7000DB010B498C4663441F21114001228A404D
:100C80009A61236800221A71002002E0034B984702
:100C9000052003B030BDC046594000009940000017
:100CA00000440041211B000030B58FB001AA64232D
:100CB0000193214B536000239360137313768021BB
:100CC0008903116101214942918225315354936274
:100CD000083153540131535401315354D7331386DF
:100CE000164BD382164BD361164B1362164C174921
:100CF0002000174B984724680722E3691A42FCD169
:100D000023680222134323600F4D2868114B984734
:100D10001F2318401E3B83400F4A1360E8880023BE
:100D20001021628B0A4204D101338342F9D310238C
:100D300063830FB030BDC046480D0000102700008F
:100D40000300080003000900643C0020001000427A
:100D5000C10E00008946000000E100E070B588B0D7
:100D600007AD0843287000236B7004A94F2008804A
:100D700001244C804D600B724B728B7201AC208051
:100D80006280029523726372A372074E3000074B94
:100D9000984721003000064B98472B781B02687853
:100DA000184308B070BDC046643C00201115000017
:100DB000C914000010B584B003AC08432070190AB0
:100DC0006170A3704F2369460B8001324A80019401
:100DD00000230B724B728B720248034B984704B08E
:100DE00010BDC046643C0020ED14000070B5040046
:100DF0000300012200210120034DA8476404A40F31
:100E0000024B1C7070BDC046B50D00004C010020A7
:100E1000D0B50222002100201F4B98470300012774
:100E200002040CD41D4A1678012E16D0002E0AD0CA
:100E3000022E1CD0032E25D0002000210CE04004FF
:100E4000430C023FEEE7DB0998B27843144B984716
:100E50000022144B144CA047D0BD9B0998B2784394
:100E60000F4B98470022114B0F4CA047F4E75B094A
:100E700098B278430A4B98470022FF239B050A4CFF
:100E8000A047E9E71B0998B27843054B9847002231
:100E9000074B054CA047DFE75D0D00004C0100202B
:100EA000B9DB00000000E03F25D000000000D03F8B
:100EB0000000B03F01680722CB691A42FCD170479D
:100EC000F0B5D6464F464646C0B58AB006000F007C
:100ED000140031600800A04B9847A04A116A851C95
:100EE0000123AB400B43136209A9237B0B70143021
:100EF000C5B228009A4B984728009A4B9847207B08
:100F00000021994B98473B681C209B0705D50AB0E8
:100F10001CBC90469946A246F0BD3B681738DB07DB
:100F2000F5D430688C4B9946984705008F49904B13
:100F30009847AD008F4BEE50002333767376002533
:100F40007383B3832522B554336214333B60336813
:100F500098461800C8478146802308AA1370557028
:100F600001239370D570E069276A002800D1AFE0B3
:100F700008AB1870022308AA5370000CC0B211000D
:100F80007D4B9847002F00D1A7E008AB1F700223CC
:100F900008AA53703F0CF8B21100774B9847A38A08
:100FA000F380E38A3381237E8022002B04D1734BAC
:100FB0009B789B07DB0FDA01A16823690B4313437E
:100FC0002422A25C002A02D08022D2051343A26A06
:100FD00013432C22A25C002A03D180229204914266
:100FE00002D18022120513432D22A25C002A02D0D6
:100FF0008022120413432E22A25C002A02D08022F7
:10100000D2031343424612681343424613608023BF
:101010005B00536048461430C0B2594B9847079064
:10102000FA239B0022685A43914663689A46554DBD
:10103000A847009001914B465800A84702900391A1
:10104000208EA847049005914F4F504A504B00986E
:101050000199B84702000B0004980599B8474D4E16
:1010600000224D4BB047049005914846A847020026
:101070000B0004980599B84702000B00474D0098F3
:101080000199A847029A039BB0470022444BA84706
:10109000029A039B434DA847434B98470500802382
:1010A0009B04A2689A421ED003004020FF2D00D965
:1010B0002DE700240020FF251D40240625430004C1
:1010C000FF231B04184005434346DD6000201EE754
:1010D00000214046354B98474AE701214046334BB3
:1010E0009847070051E7FA26B60053465E4300983A
:1010F000019902000B00274CA0470090019130009D
:10110000204B984700222A4BB84702000B0000985A
:101110000199244CA0470022214B204CA047224B90
:101120009847041E0CD031000798224B984702388C
:10113000001B2B00FF2D0CD8FF28BCD94020E6E671
:101140007100481E079B9C4660441A4B9847013823
:10115000EFE74020DBE6C0461146000000040040F7
:1011600085540000F95300004D44000005160000AE
:101170004D460000E03F00207D550000002000416A
:10118000A15400003DDC000025D0000095D626E8E3
:101190000B2E113E9DC300000000244025D5000009
:1011A0000000F03FBDC9000051DB00009944000081
:1011B0000000084031C2000003681A7E920707D57C
:1011C00002221A765B8B9B074120DB171840704781
:1011D0005A8B520706D55968C02292020A435A60B8
:1011E0001820F4E70020F2E730B50268002301245C
:1011F0000225117E21420BD1117E294206D10133F5
:101200009BB201899942F4D8122002E0002000E04C
:10121000002030BD10B5046862688023DB021343F0
:1012200063606162024B98470123237610BDC0467C
:10123000E9110000F0B5DE4657464E464546E0B59A
:1012400083B00600894605684C882B681B01DB0FBC
:101250009A464B7A002B2BD16B68584A13406B602F
:101260004B461B7A002B27D14B461B885B004A4616
:10127000527A92031343012213436B623000504BA6
:10128000984701905346002B03D04B465B88012BB7
:101290003BD06B68494A13406B60019B002B3AD0EE
:1012A000019803B03CBC90469946A246AB46F0BDBF
:1012B000897A444B9847CFE74B461B885B004A46E8
:1012C000527A920313438022120213436B6230005E
:1012D0003B4B984701906B68384A13406B6000287D
:1012E000DED13000384B984701900028D8D14B46CA
:1012F0001B881B0A782213435B004A46527A9203EA
:1013000001210A4313436B62B8E76A688023DB025A
:1013100013436B60C1E730002B4B984701900028C6
:10132000BED1013CA4B28046284B9B4615E0012C5F
:1013300020D03000264B984743465F1CBFB228237D
:10134000EB5C4A4652684146535430001C4B984768
:10135000013CA4B2002815D1B8465C4514D06B8B73
:101360009B0627D5F37A002BE3D05346002BDED122
:10137000002CDED16A688023DB0213436B60013CE2
:10138000A4B2EAE7B8460190B37A002B09D1300045
:101390000F4B98472823EA5C4B465B6841465A54FA
:1013A0007EE730000A4B98476A68C0239B021343CC
:1013B0006B60ECE74123019372E7C046FFFFFBFF40
:1013C000E911000015120000B9110000FFFF000034
:1013D000B50E0000F0B5DE4657464E464546E0B530
:1013E00083B006000F0005684C88324B98477B7A23
:1013F000002B1DD16B68304A13406B603B7A002B89
:101400001BD03B885B007A7A92031343802212023E
:1014100013436B623000294B98470190002813D08A
:10142000019803B03CBC90469946A246AB46F0BD3D
:10143000B97A3000224B9847DCE73B885B007A7A28
:10144000920313436B62E5E730001E4B9847031E7F
:101450000190E5D1A046002420339946154B9B46C8
:10146000164B9A46444515D06B8B4A4613421DD005
:101470003000D8477B681A5D2823EA543000D047F3
:10148000002806D16B8B01345B07EBD51E2301933B
:1014900000E00190B37A002BC2D03000054B984792
:1014A0006A68C0239B0213436B60B9E74123019331
:1014B000B6E7C046B50E0000FFFFFBFFE9110000D4
:1014C00015120000B911000010B5838B9BB20522E4
:1014D000002B01D0100010BD01338372C372024B88
:1014E00098470200F6E7C0463512000010B5838B1E
:1014F0009BB20522002B01D0100010BD0133837276
:10150000C372024B98470200F6E7C046D5130000AD
:1015100010B5838B9BB20522002B01D0100010BDAB
:1015200083720133C372024B98470200F6E7C0464C
:10153000D513000001680722CB691A42FCD170471D
:1015400070B5040006683268458B838BED1AADB226
:10155000838B013B9BB2838313011DD5C37A002B80
:1015600003D0838B9BB2012B10D0A38B9BB2002B9B
:1015700002D1A37A002B1CD12000124B9847236A7A
:101580005D192823F35CDBB22B7070BD7268802379
:10159000DB0213437360E8E7C37A002BE5D0838B4B
:1015A0009BB2002BE1D172688023DB02134373608E
:1015B000DBE72000034B98477268C0239B0213436C
:1015C0007360D9E73515000070B5040005686B8BB2
:1015D0005B0703D51E222523C25470BD468B838B27
:1015E000F61AB6B2838B013B9BB28383044B9847B8
:1015F000236A9E193378DBB22822AB54EDE7C0464C
:101600003515000070B58000754BC45825682B68EF
:101610001B01DA0F637E267E1E40638B9BB2002B7C
:1016200003D1A38B9BB2002B23D1638B9BB2002BE6
:1016300008D0A38B9BB2002B04D12533E35C052B90
:1016400000D16DE0638B9BB2002B24D0A38B9BB2A7
:10165000002B20D06B8B9B0600D581E0002A04D0A4
:10166000A38B9BB2012B00D17AE041222523E254C7
:1016700011E02B7EDB0707D501232B766B8B9B07B5
:101680002ED541222523E254A38B9BB263832523CD
:10169000E35C052B38D0638B9BB2002B07D0A38B68
:1016A0009BB2002B03D12533E35C052B64D02523AB
:1016B000E35C052B13D02523E35C002B0FD0032321
:1016C0002B7500236383A3832533E35C412B03D075
:1016D000A37A002B00D075E0730700D57BE070BDC6
:1016E0006B8B5B07D0D518222523E2540023A383FC
:1016F000A37A002BC8D020003A4B98476A68C023D1
:101700009B0213436B60BFE71F33E35C002B03D0E6
:101710002000354B9847BEE72000344B9847BAE786
:101720001F33E35C002B00D08CE703332B750023C1
:10173000638325330022E254A37A002B07D10123CF
:101740002B76F307A7D5E36820009847A3E720008E
:10175000244B98476A68C0239B0213436B60F0E7F1
:101760002423E35C002B03D12000204B984792E711
:1017700020001D4B98478EE71F33E35C012B96D169
:101780002B7E9B0701D502232B7603232B75002389
:10179000638325330022E254B30703D52423E35C9B
:1017A000012B0BD0F30700D481E72423E35C002B4B
:1017B00000D07CE7E3682000984778E723692000A1
:1017C000984774E72000074B98476A68E023DB02DC
:1017D00013436B6080E76369200098477FE7C0464A
:1017E000E03F00203515000041150000C91500003C
:1017F000F0B58BB005000C00160029600B681C20AA
:101800009B0701D50BB0F0BD0B681738DB07F9D487
:1018100008006F4B98476F4A116A871C0123BB4031
:101820000B43136209A92427F35D0B701430C3B274
:1018300001931800684B98470198684B9847F05DF2
:101840000021674B98473378012B3FD03378002B2A
:1018500003D123680822134323602B000C33290093
:101860002831002204C38B42FCD10023EB62AB621F
:101870000024AB862B863633EC540133EC54013311
:10188000EC54353B6B722C712868514B984707001C
:101890005449554B9847BF00544BFD502F6804AB3B
:1018A00080221A705C707F3A9A70DC703378002B5B
:1018B00002D1002204AB9A70B36A0593F36A0693CF
:1018C000336B0793736B089300240BE023680C229F
:1018D00013432360BAE73800454B98470AE00134C8
:1018E000042C10D0E1B2A30002AA0C201218D05888
:1018F0000028F0D0431CF2D004A90870000CC0B23C
:101900003C4B9847EBE733786B71337CAB71B37C1E
:10191000EB71337D2B72002202ABDA803378012B1E
:1019200012D03378002B26D1B069B28B7B6AF17F5D
:101930000904B47F2143194379622023F35C002B0F
:101940001BD040231A4318E02868214B98471430D5
:10195000C0B2294B9847010002AB9A1DB069274BD2
:10196000984703001720002B00D04BE702AB06334B
:101970001B783B73D5E7002200207368B1680B43E6
:10198000F1680B430343317C0A43717C002903D186
:101990001B498978890701D580210B43B17C002937
:1019A00002D0802189020A43F17C002902D08021E3
:1019B00089000A43317D002902D0802189010A4330
:1019C00039680B433B607B681A437A60002019E753
:1019D000114600000004004085540000F953000047
:1019E0004D440000311D00004D460000E03F002046
:1019F000994400007D550000A15400008F43000071
:101A000000200041F0B5D6464F4680B583B08C46E5
:101A10003825465D333D052E75D01235002A72D02B
:101A2000C4790535002C6ED04479002C03D10468AC
:101A3000257EA9070AD4013A94B200260422022185
:101A400089460127DB05DB0D9A4637E0022525761E
:101A5000F1E701680B7E3B42FCD00B7E3B4209D094
:101A600053468B622DE00B7E4D462B4238D10B7EC8
:101A7000134245D001680B7E1342FCD00B7E13420B
:101A800040D04B8B00250195134202D04A831E2380
:101A900001938379012B27D08B6ADBB2019900294E
:101AA00037D1751CADB261468B55817901291FD0A4
:101AB0002E00013CA4B2184B9C421FD04379012B4D
:101AC000C7D04379002BD5D101680B7E1342CAD110
:101AD000124B0D7E1542C6D1013B002BF9D1C2E756
:101AE00002230B7604250EE08B6ADB05DB0DD5E7C0
:101AF0000236B6B21B0A61464B55DAE7019D02E099
:101B0000122500E01025280003B00CBC91469A462F
:101B1000F0BD019DF7E7C046FFFF00001027000061
:101B2000F0B5DE4657464E464546E0B583B038230D
:101B3000C45C333B052C02D01233002A07D11800B5
:101B400003B03CBC90469946A246AB46F0BD4379F3
:101B5000002B03D103681C7EA4070AD493460024FB
:101B600001230225AC460235A846013A92B28A46C4
:101B700023E002241C76F1E7357E61460D422ED12A
:101B8000357E1D4200D1C2E00668357E1D42FCD084
:101B9000671CBFB251460D5D8179012923D0ADB2DA
:101BA0003C00377E1F4202D0ED05ED0DB562551E9B
:101BB000ADB2C679002E1DD12A005A4DAA4270D06E
:101BC0004579002DE0D10668357E1D42D4D1564DB1
:101BD000377E1F42D0D1013D002DF9D1CCE7022341
:101BE00033760233ABE70234A4B25146CF5D3F02F5
:101BF0003D43D6E751464579002D37D14B4D0191F4
:101C000012E00234A4B24946019F795C0902009FA8
:101C10000F431BE0013A92B20668377E41460F42FD
:101C20001BD1013D002D18D0002AF5D00668377E63
:101C30001F42F1D0671CB9B289460199095D009134
:101C400081790129DDD069460F884C46317E1942E1
:101C5000E0D0FF05FF0DB762DCE70199357E6746EE
:101C60003D4218D1357E4646354252D00668357E13
:101C700047463D42FBD0357E3D4207D0758B3D4205
:101C800000D077838579012D09D0B56A5D46013D85
:101C9000ADB2AB4669E70223337602334FE7B56A4C
:101CA000F4E74379012B0BD0002B34D1C279002A01
:101CB00000D144E704245B465D46002B19D13EE782
:101CC000016802220B7E1342FCD0002337E70B7E13
:101CD000234222D00B7E234207D04B8B234200D0DD
:101CE0004C838379012B10D08B6A013DADB2002D5E
:101CF00015D001680B7E2342E9D10B4B0A7E2242AC
:101D0000E5D1013B002BF9D1E1E78B6AEDE7122326
:101D100015E7122313E7002311E712230FE700232F
:101D20000DE7C046FFFF000010270000112700004C
:101D3000F8B58000854BC45826683723E35C36220B
:101D4000A75C1F40337EB57D1D40EB072ED5637920
:101D5000012B25D0002B29D1637A002B26D02168B6
:101D6000E26A1378DBB2501CE062A079012800D14E
:101D700069E09BB2DB05DB0D8B62A38E013B9BB25E
:101D8000A386A38E9BB2002B10D101333375637AE7
:101D9000012B0BD1E379002B08D10233B37505E099
:101DA000637A002B3ED0637A002BD8D16B0711D514
:101DB000738B5B0751D5637A012B08D01E22382321
:101DC000E254353B6372023333753B0741D4B36A47
:101DD00004237383AB0715D56379002B0ED107332A
:101DE0003375053B3376013363720023A386238664
:101DF00038330022E254FB0600D57FE06379012BE3
:101E000000D17FE02B0708D56379002B05D108337B
:101E100033753376BB0600D58AE06DB2002D00DA4B
:101E20008AE0F8BD4A4B1B88B362638E013B9BB2CC
:101E30006386638E9BB2002B01D1013333756379C6
:101E4000012BB0D086E75078000203430232E262F1
:101E500090E72000A3699847B9E7637A012B27D060
:101E600023689B6ADB05DB0DDAB2A16A0A70A26AFD
:101E7000511CA162A179012933D0238E013B9BB271
:101E80002386238E9BB2002BA4D100223833E25448
:101E9000343B3375637A022B29D0637A002B00D050
:101EA00098E7BB0700D495E720002369984791E79E
:101EB00023689B6A638E013B9BB26386638E9BB2F1
:101EC000002B00D086E70433337500223433E2540C
:101ED000353B6372FB0700D47CE72000E36898473A
:101EE00078E71B0A5370A36A0133A362C5E77B0737
:101EF00000D46FE72000636998476BE72000E3692F
:101F000098477BE7637A012B00D086E7E379002BC3
:101F100000D082E702333375013363720022353318
:101F2000E254FB0700D46DE72000E368984769E7B7
:101F30002000236A984770E78023337533767B0649
:101F400000D46EE7636A200098476AE7E03F00200C
:101F50008C3C002082B000230193064B1B680133A8
:101F600001D072B6FEE772B6019B002BFCD002B026
:101F70007047C04600000020000000000000000084
:101F80000B4A13681868203080F30988022080F318
:101F90001488BFF36F8F3FBCAE4608BC04BC62B66A
:101FA0001847C046C046C046C046C046C046C046A8
:101FB0007418002010B5031F802464041C60043BC7
:101FC0001960043B02491960143B1A60403810BD87
:101FD000551F00007047000070B5124B1968FF22B2
:101FE00012040A431A601968FF2212060A431A6093
:101FF0000D4D00242C600D4B1C6000200C4B9847AD
:10200000C8210C4B984701380B4B186007232B60F5
:102010000A4B1C600A4B98470A4B98470A4B984753
:10202000002070BD20ED00E010E000E018E000E0CE
:102030006D53000031C2000014E000E000000020F9
:10204000811F000085380000551F000080225205C6
:10205000034B1A60BFF34F8FBFF36F8F7047C046BB
:1020600004ED00E072B6044A136801331360BFF355
:102070004F8FBFF36F8F704700000020064B1B6827
:10208000002B01D172B6FEE7013B034A1360002B1F
:1020900000D162B67047C04600000020EFF3108008
:1020A00072B6704780F3108870470000000000008F
:1020B000EFF309800E4B1A6820381060F0C04446D8
:1020C0004D4656465F46F0C008B572B601F0DAFBE1
:1020D00062B60CBC116808681030F0C8A046A9466A
:1020E000B246BB4680F309882038F0C81847C0467E
:1020F0007418002010B5074B98470400064B98470A
:10210000002803D080225205044B1A602000044BA3
:10211000984710BD9D2000002536000004ED00E02A
:10212000A520000070B50400430702D007239C439C
:102130000834114B9847114B1B68002B10D0104BE3
:102140001B68E4180F4A944211D8A34211D20B4ADB
:102150001568ED180A4B1C600B4B9847280070BDA2
:1021600007220A4B08339343044A1360E7E700252C
:10217000F2E70025F0E7C0460936000050010020D4
:1021800054180020F71600004537000054010020C5
:10219000002801D072B6FEE7704700207047FEE7C6
:1021A00070B50600134D2800134CA0472800A04727
:1021B000317900291CD03468002389B20F4E0025E4
:1021C000300004E09A1915700133142B05D09AB22F
:1021D0009142F7D9E25CC254F6E7064E3000064D54
:1021E000A8473000A8470122054B1A70054B1C7008
:1021F00070BDC0466CF20000C5DE0000903C0020BF
:10220000691800205818002010B5024B984700208C
:1022100010BDC0461D60000070B586B0154E164D4D
:10222000164CB047A8470A2203A9A047144B1A68C6
:1022300000929A8869468A809B798B7103220021DB
:102240006B46D81D0F4B984703A90F480F4B984773
:1022500003A968460E4B98470E480F4B98476846AF
:102260000E4B98470E4B18680E4B984714200E4B98
:102270009847D6E7110E000051DB000061DD000039
:10228000F8F0000099DD00006C180020EBE0000081
:10229000BDE000006CF20000C5DE0000A9DD00001A
:1022A00060180020153500004538000010B5064CB8
:1022B0000022802149022000044B98470121200080
:1022C000034B984710BDC046A43C00205D0A0000A7
:1022D0006D090000F8B507000E00134C2000134BE9
:1022E00098472000124B984780256D020022290054
:1022F0002000104B98470022290020000E4B9847E1
:1023000003233A00290020000C4DA8470323320084
:102310000B492000A847012120000A4B98472000C4
:10232000094B9847F8BDC046A43C00201D0C000096
:10233000150100005D0A00005507000019030000A8
:10234000200001006D090000910B0000F8B5164C4B
:102350002000164B98472000154B984780267602A0
:10236000002231002000134B9847134D03232A000D
:1023700031002000114FB8470323114A11492000B2
:10238000B84701212000104B984720000F4B984779
:102390000F4F38000F4EB04728000F4CA0473800B1
:1023A000B0470748A047F8BDA43C00201D0C000022
:1023B000150100005D0A0000883D00202102000098
:1023C0008C3D0020200001006D090000910B0000F1
:1023D0006CF20000C5DE0000A9DD0000F0B5DE46AD
:1023E00057464E464546E0B5A1B01BABDA4D2A68CC
:1023F0001B92AA889A80AA799A710D2200216320E3
:1024000004AB9C466044D54B984729000C313822D8
:102410000CA8D34B984700231A93D24B9847D24924
:10242000D248D34B9847002811D10122D14B1A70C2
:102430008022D205D04B5A61012400239A46994646
:10244000CE4B043B0393534601932700CBE0CC498A
:10245000C648C74B98470028EED10022C54B1A70DA
:102460008022D205C44B9A61E6E72421C548C64BB9
:102470009847C64B0293BFE01222C549029D28002F
:10248000B74B98472800C34B984781B22800BE4BF2
:102490009847C148C14B98472800C14B98470194C1
:1024A0009DE00122B34B1A708022D205B24B5A61D3
:1024B000AC4B9847B149AC48BA4B98470F22BA4940
:1024C000029C2000A64B98472000B24B984781B24F
:1024D0002000AD4B9847B048B04B98472000B04B18
:1024E00098477CE0A34B4A461A708022D205A24B43
:1024F0009A619C4B9847A149A148AA4B9847122240
:10250000A349029C2000964B98472000A14B984776
:1025100081B220009C4B98479F48A04B98472000D1
:102520009F4B98475BE08F4B9A46984704AC9F4B74
:10253000220003CB03C21B881380904920009C4BD0
:102540009846984721008D489A4B98478B48914B65
:10255000984781B289488C4B98478F488F4FB8472E
:1025600086488F4EB047944B220003CB03C21B8892
:102570001380039D4A462A71D04729002000C04796
:10258000210028008B4B98472800824B984781B246
:1025900028007D4B98478048B8472800B0470295EF
:1025A0001DE0864F17213800774B98470196029718
:1025B00015E06C4B984782496C487A4B9847814F9D
:1025C0001F213800704B98474B460193029706E055
:1025D0007D487E4B984780B213217D4B98477D4BB9
:1025E0004A461A704F467C4D7A4CA8472678012EF1
:1025F000FBD1012F00D138E7019B012BD9D07749BE
:102600006F485B4B98470028E2D075496C48584B9F
:102610009847002830D073496948554B984700289F
:102620004CD071496648524B9847002859D06F49A1
:1026300063484F4B9847002800D132E76C49604807
:102640004B4B9847002800D14CE76A495C48484BFF
:102650009847002800D166E767495948444B984796
:1026600000289ED0564F38004A4B984781B2380018
:10267000454B98470297B2E7604E1BAC31002000F3
:102680004B4B98472100029D28004A4B9847280051
:10269000404B984781B228003B4B98473E483F4B00
:1026A000984728003E4B98472B4B1A681B929A88F4
:1026B000A2809B79A3714B46337090E70CA9029CD2
:1026C00020003C4B98472000324B984781B22000B5
:1026D0002D4B98473048314B98472000304B984756
:1026E0007DE7464E1BAC31002000314B984721005E
:1026F000029D28002F4B98472800264B984781B20F
:102700002800214B98472448244B98472800244B05
:102710009847114B1A681B929A88A2809B79A371E3
:102720004B463370134B1C78002C00D1A4E60F22CB
:102730001D49029C20000A4B98472000154B9847E2
:1027400081B22000104B98471348144B9847200043
:10275000134B984743E7C046F8F0000099DD0000AE
:1027600087DD00004D230000C8F10000883D0020F7
:10277000D7E0000068180020804400418C3D002014
:10278000CCF10000D0F10000ED5F0000F4F100009A
:1027900030F20000FBE000006CF20000C5DE00003B
:1027A000A9DD0000D522000044F2000054F2000030
:1027B000BDE00000EBE0000060F2000090F10000DE
:1027C000903C0020A8F10000903D00201162000024
:1027D0005D8C00006918002071750000F8F10000A0
:1027E00000F2000008F2000010F2000018F20000F1
:1027F0001CF2000024F200002CF200006C180020F3
:10280000F0B593B0674B98476748684B984768485E
:10281000684B984796216848684B98470020684B5A
:1028200098470020674B9847674B9847674A0021B5
:102830000020674B98476748674B98470120674BD4
:102840009847674B984746246C440027002627800A
:10285000022200210320634DA847208011AC27806D
:10286000022200210220A8472080C020C0015E4B28
:10287000984703AC01252570049705972674667464
:10288000A574E57426752423E6540C22002109A8BA
:10289000564B9847564BA36180235B02E360554B30
:1028A000A36201235B42E362534B2363534B636395
:1028B000534E220053493000534B98473468200050
:1028C000524B98471F2318408540514B1D6032687A
:1028D000D369002BFCD123680222134323604D4CA3
:1028E0000423237109336371454B236002A901233B
:1028F0004B7000228A700B700D20474B984761790E
:10290000CA090023002A04D14B09DB01434A94463B
:1029100063441F220A4001242100914099613D4DEA
:1029200028003F4B984728003E4B984703A94C701E
:1029300000238B700C703E20374B98478022D205C5
:10294000394B9A61394B9847394E019600940023D0
:10295000642238493848394FB8471348134DA847BF
:102960003748144CA047374B0193022300930023B0
:10297000642235493548B8470B48A8473448A04732
:10298000344B0193032300930023642232493348DC
:10299000B8470548A8473248A0473068314B9847A8
:1029A00013B0F0BD0D5C00006CF20000C5DE00004D
:1029B00070F20000A9DD0000F03C0020755F00000F
:1029C000D16B0000815F00001D60000040F100003D
:1029D000DD690000A1210000796000001D2F0000CA
:1029E000A90C00005D0D0000ED0D000099DD000058
:1029F000C0D401000200300003003600030037009D
:102A0000AC3C0020001C0042F11700008946000089
:102A100000E100E0A43C0020B1420000004400417D
:102A20001D0C00001501000080440041AD22000093
:102A30005C1800209CF200009F2100003933000048
:102A4000A0F2000060180020B4F20000DD230000B6
:102A5000B8F2000064180020CCF200001922000037
:102A6000D4F2000021390000030008334360012242
:102A700052428260C36003610023036070470023F9
:102A80000361704743684B609A688A609A68516036
:102A900099600861036801330360704730B50C68C2
:102AA00002000832631C02D1026904E01A00536874
:102AB0001D68AC42FAD253684B6099608A605160DD
:102AC000086103680133036030BD036942688168AF
:102AD00091608268416851605A68904206D0002235
:102AE00002611A68013A1A601868704782685A6071
:102AF000F5E7000010B50400034B9847A46B034BA7
:102B000098476042604110BD652000007D200000B4
:102B100070B504001600856B026C002A0BD10020F2
:102B20002368834204D16068164B98470023636092
:102B30000135A56370BD002E0ED18068124B9847F9
:102B4000A368226C94466344A360002062689342A9
:102B5000EED32368A360EBE7C0680B4B9847236C68
:102B60005B42E268D218E26021688A4203D262685E
:102B700094466344E3600020022ED9D18542D7D029
:102B8000013DD5E7A93B000087DD000070B582B0AC
:102B900001900A00846C002C05D0A16BE36B994274
:102BA00003D372B6FEE772B6FEE7A16B00268B4236
:102BB00002D8300002B070BD4523E55C6DB201A9BA
:102BC00020000A4B984706006B1C0AD1636A002B51
:102BD000EFD020002430064B98470028E9D001268A
:102BE000E7E701356DB24523E554E2E7112B00001C
:102BF0004D3A000010B50C00026C002A0BD0C368DF
:102C00009B18C36041688B4201D30368C360C168ED
:102C10002000014B984710BD87DD0000F8B5070084
:102C2000254B98474523FC5C64B2002C1CDD234EE9
:102C3000234D0BE07B6A002B16D038002430A847C8
:102C400000280ED1013C64B2002C0DD0BB6C002BCF
:102C5000F0D000213800B0470028F3D0194B984736
:102C6000F0E7184B9847EDE7FF224523FA54164B3F
:102C70009847114B98474423FC5C64B2002C14DD48
:102C80003B69002B11D03D0010350D4E06E0013C94
:102C900064B2002C09D03B69002B06D02800B04755
:102CA0000028F4D0074B9847F1E7FF224423FA5459
:102CB000054B9847F8BDC046652000008D2B0000ED
:102CC0004D3A00007D3B00007D20000070B50400FF
:102CD0000D00002821D0174B98472268216CE36B28
:102CE0004B43D01860600020A063A2605B1AD31829
:102CF000E360FF234422A3540132A354002D11D1D9
:102D00002369002B05D0200010300B4B984700287A
:102D100005D10A4B9847012070BD72B6FEE7084BFB
:102D20009847F6E720001030064DA84720002430D1
:102D3000A847EEE7652000004D3A00007D20000026
:102D40004D200000692A000070B506000D00002823
:102D500001D172B6FEE7080070434C300A4B984729
:102D6000041E0ED0002D03D003004C33036000E09E
:102D70002060E663256401212000044B984700236E
:102D8000A364200070BDC04625210000CD2C0000AA
:102D9000F0B5CE46474680B585B004000F000192DD
:102DA0001D0000280CD000290CD0022D0FD04E4B56
:102DB0009847002810D1019B002B11D072B6FEE776
:102DC00072B6FEE7036C002BEFD072B6FEE7E36B42
:102DD000012BECD072B6FEE70026444B98464CE03F
:102DE0000026FAE72A0039002000414B9847A36CDF
:102DF000002B0FD0290020003E4B9847002801D01F
:102E00003D4B98473D4B9847012005B00CBC904680
:102E10009946F0BD636A002B08D020002430384B5F
:102E200098470028EED0344B9847EBE70028E9D0CC
:102E3000314B9847E6E7314B98470020E5E72F4BA9
:102E4000984701A902A82F4B9847002844D1274B47
:102E50009847A36B9946E66B284B9847B14535D107
:102E6000200010300199284B98472000274B9847A5
:102E7000274B9847002826D00126C047A36BE26B5A
:102E80009342AFD3022DADD0019B002BD3D0002EA7
:102E900002D102A81F4B9847184B98471E4B9847E2
:102EA000124B98474423E35C5BB2013302D100220A
:102EB0004423E2544523E35C5BB20133BFD10022DB
:102EC0004523E254BBE70C4B9847D5E720000F4B56
:102ED00098470F4B9847CFE720000C4B98470C4B77
:102EE0009847002091E7C046893B0000652000001C
:102EF000112B00008D2B00004D2000007D200000D4
:102F00004D3A0000ED3A0000E93900001D2C0000A8
:102F100045370000D53A00000936000070B50200C0
:102F200000210120064B9847041E07D00023436070
:102F30000360C36000220021024DA847200070BD3D
:102F4000492D0000912D0000F0B583B004000191DF
:102F500016001D00002812D0019B002B11D0022D5D
:102F600014D0284B98470090A36BE26B9A422FD85D
:102F700000250098244B9847280003B0F0BD72B696
:102F8000FEE7036C002BEAD072B6FEE7E36B012B81
:102F90001AD072B6FEE7636A0125002BE9D0200043
:102FA00024301A4B98470028E3D0002E0AD0012382
:102FB0003360DEE77B1C5BB24522A3540125D8E7D2
:102FC0000125D6E70125D4E70E4B98470090A36B67
:102FD0004523E75C7FB22A00019920000C4B9847FB
:102FE0007B1CE7D1A36C002BD5D029002000094B16
:102FF000984701250028BCD0002EE1D00123336082
:10300000B7E7C0469D200000A52000004D3A000013
:10301000112B00008D2B0000F0B5C64600B584B022
:1030200004000F00019200280AD000290AD0424B68
:10303000984700280BD1019B002B0CD072B6FEE7FD
:1030400072B6FEE7036C002BF1D072B6FEE70026E5
:103050003A4B98462FE00026FAE739002000384B1B
:103060009847013DA5632369002B07D0200010304D
:10307000344B9847002801D0334B9847334B98473F
:10308000012004B004BC9046F0BD304B98470020AE
:10309000F7E702A82E4B984716E000224423E2549B
:1030A0001DE000224523E2541EE02000294B9847F2
:1030B000294B98470126C047A56B002DCDD1019B18
:1030C000002BE2D0002EE4D0204B9847234B9847AA
:1030D0001A4B98474423E35C5BB20133DDD04523B0
:1030E000E35C5BB20133DCD0184B984701A902A81E
:1030F0001B4B9847002813D120001A4B98470028F3
:10310000D3D0200024300199174B98472000114B51
:103110009847114B98470028CCD10B4B9847C9E7EB
:1031200020000C4B98470C4B984720000D4B9847BC
:103130000028BFD00020A4E7893B000065200000E4
:10314000F52B00004D3A00004D2000007D200000CE
:10315000D53A00001D2C000045370000093600005C
:10316000ED3A0000F52A0000E939000070B50400CE
:103170000D001600114B98474423E35C5BB201330A
:103180000DD04523E35C5BB201330CD00C4B984768
:10319000A36B002B0BD020000A4B984770BD002278
:1031A0004423E254EDE700224523E254EEE72000F9
:1031B000243032002900044B9847ECE765200000DA
:1031C0007D2000001D2C0000153A000000280CD0C6
:1031D000084A00214369934205D1836A064A934213
:1031E00005D0594259410800704772B6FEE70021E8
:1031F000F9E7C0464819002030190020084B1B6829
:103200001B68002B07D0064B1B68DB68DB685A681D
:10321000044B1A60704701225242024B1A60F9E7D0
:103220007818002028190020F0B5D6464F464646AB
:10323000C0B5144B9946144B9846144F144B9A46FC
:103240004B461B68002B16D0C047FB68DD68281D65
:10325000D047104A1368013B13600A4C2368013BB6
:1032600023600D4B9847286B0C4EB0472800B047A1
:103270002368002BE8D10A4B1B68012BE0D9094BCE
:103280009847DDE7E8180020652000005C19002061
:10329000CB2A0000E41800207D20000091210000CE
:1032A000801800204D20000070B504000D00194B5F
:1032B0001E68194B19680020492288541868043088
:1032C000164B9847631C13D03419134B1B685C6072
:1032D000A64216D8124B18680F4B19680431114BCF
:1032E0009847114B1B689C4212D20F4B1C600FE099
:1032F000002DE9D0084B196804310C480C4B984755
:1033000006E00C4B1868044B19680431054B9847CC
:1033100070BDC0467019002074180020CB2A000030
:10332000781800209D2A0000281900204819002044
:10333000852A00007C180020F0B5C64600B584B090
:1033400001900D000293970038005C4B9847061ED1
:1033500000D183E04C20594B9847041E00D17AE0FD
:103360000663381F30180723984380462A782D3388
:10337000E2542B78002B0DD001352300353320008B
:103380003C302A781A702A78002A03D0013501339C
:103390008342F6D100223B23E2540A9F042F00D936
:1033A0000427E762E76300262664231D03931800C1
:1033B000434DA84720001830A84724610523DB1B94
:1033C000A361646266644823E6540133E654029ABA
:1033D000019940463B4B984720600B9B002B00D047
:1033E0001C60394B9847394A136801331360384BD6
:1033F0001B68002B35D0374B1B68002B07D1344B93
:103400001B68DB6AE26A934201D8314B1C60324A86
:10341000136801331360E36A304A1268934201D99A
:103420002E4A13609800C01880002D4B181803997D
:103430002C4B98472C4B9847264B1B680120002BA0
:1034400005D0234B1B68DA6AE36A9A4231D304B091
:1034500004BC9046F0BD3000244B98470120404208
:10346000F5E71B4B1C601368012BD0D11C4F3800B3
:103470001F4EB04738001430B04738002830B047EE
:1034800038003C30B04738005030B047194B9846B0
:103490001800B047184F3800B0471848B0471848D0
:1034A000B0471848B047184B42461A60174B1F6088
:1034B000ADE7174B98470120C9E7C046252100001A
:1034C0007F2A0000B51F000065200000E4180020DE
:1034D0007418002044190020F4180020F818002067
:1034E00080180020852A00007D2000009121000026
:1034F000692A0000FC180020101900203019002053
:103500005C19002048190020781800207C18002041
:103510004D20000070B5041E0DD0164B1B6898425C
:1035200008D0154B98472000144B9847002804D129
:10353000134B984770BD72B6FEE7251D2800114B4E
:103540009847E36A104A1268934201D90E4A136001
:103550009800C01880000D4B181829000C4B984794
:10356000044B1B68E26ADB6A9A42E1D3094B984735
:10357000DEE7C0467418002065200000CD31000051
:103580007D200000CB2A0000F818002080180020C1
:10359000852A00004D20000010B582B0114B019328
:1035A00000230093642210491048114CA0470128C1
:1035B00003D0431C13D002B010BD0E4B9847012816
:1035C000F7D172B6012252420B4B1A6002320B4BFA
:1035D0001A6000220A4B1A600A4B9847EBE772B652
:1035E000FEE7C04624190020E8F20000293200005E
:1035F00039330000CD3C0000281900204419002078
:1036000070190020D91F0000024A136801331360AB
:103610007047C046F0180020014B18687047C0463C
:1036200070190020F0B583B0384B1B68002B60D1B7
:10363000374B1D6801351D60002D12D1354B1B68BD
:103640001B68002B01D072B6FEE7324A1168324B7C
:10365000186810601960314A136801331360304BE9
:103660009847304B1B6800249D4233D30024294FD8
:103670003B681B68002B29D0264B1B68DB68DE6883
:1036800073689D4232D3331D01931800264B98472F
:10369000B36A002B03D030001830234B9847F36AED
:1036A000224A1268934201D9204A13609800C01838
:1036B00080001F4B181801991E4B98471E4B1B6822
:1036C000F26ADB6A9A42D3D30124D1E70122524243
:1036D000144B1A60184B1B68DA6A93009B189B0006
:1036E000134A9B58012B09D9012407E00D4A1360A6
:1036F000F0E7124A1368013313600024104B1B6873
:10370000002B00D00124200003B0F0BDF0180020F1
:1037100070190020781800207C1800202C19002037
:10372000FD31000028190020CB2A0000F8180020E5
:1037300080180020852A000074180020EC18002052
:1037400074190020F8B5304B1B68002B01D172B6FC
:10375000FEE72E4B98472C4B1A68013A1A601B68FB
:103760000024002B03D12A4B1B68002B03D1294BCB
:1037700098472000F8BD284D2F002B68002B22D041
:10378000FB68DC6820001830244B9847261D300069
:10379000224B9847E36A224A1268934201D9204A91
:1037A00013609800C01880001E4B181831001E4B83
:1037B00098471E4B1B68DB6AE26A9A42DDD30122FE
:1037C0001B4B1A60D9E7002C01D01A4B98471A4BB3
:1037D0001C68002C0ED0194F154E012502E0013C4B
:1037E000002C04D0B8470028F9D03560F7E7002254
:1037F000114B1A600E4B1B680024002BB7D0104BE6
:1038000098470134B3E7C046F01800206520000057
:10381000E41800207D20000030190020CB2A000091
:10382000F818002080180020852A00007418002055
:1038300074190020FD310000EC180020253600002E
:103840004D20000010B5041E0FD0094B1B68002B43
:1038500001D072B6FEE7074B984700212000064BC7
:103860009847064B9847002801D1054B984710BD53
:10387000F018002009360000A9320000453700008A
:103880004D20000010B5214B1B68002B18D10022E1
:103890001F4B1A601F4B1B689A00D21892001E49DA
:1038A0005258002A10D1002B08D0013B9A00D218A0
:1038B00092005258002A07D1002BF6D172B6FEE7CB
:1038C0000122134B1A6010BD13489A00D1188900C9
:1038D00041184C6864684C60D21892000832821813
:1038E00094420BD09A00D21892000B498A18526861
:1038F000D1680A4A1160074A1360E4E760689A00D9
:10390000D218920004498A185060EBE7F0180020A2
:1039100074190020F8180020801800207418002066
:1039200070B50500244B98472C1E1DD0251D28007E
:10393000224B9847A36A002B03D0200018301F4B5E
:10394000984729001E481F4B98474823E35C012BEA
:103950000DD01D4B98471D4B1B68002B0BD11C4BEA
:103960001B689C420ED070BD194B1C68DEE700221C
:103970004733E254EDE7104B9847164B9847124BEC
:103980009847ECE7114B1B68002B08D0124B1B68C3
:10399000002B01D072B6FEE7104B9847E3E7084BC7
:1039A0001A680F4B1B689A4202D00E4B9847DAE711
:1039B0000022074B1A60D6E765200000CB2A0000E2
:1039C00048190020852A00007D20000044190020AD
:1039D00074180020FD310000F01800204D20000078
:1039E000E41800208538000010B50C00002801D133
:1039F00072B6FEE7044B19681831044B9847012151
:103A00002000034B984710BD741800209D2A000029
:103A1000A932000070B50C00150000280DD0084B2D
:103A200019681831074B9847002D01D001246442D2
:103A300029002000044B984770BD72B6FEE7C046CF
:103A400074180020852A0000A932000070B5C368F0
:103A5000DC68002C27D0250018352800154B984726
:103A6000154B1B68002B20D1251D2800114B9847B2
:103A7000E36A124A1268934201D9104A136098000F
:103A8000C01880000E4B181829000E4B98470E4B9B
:103A90001B68E26ADB6A00209A4203D901220B4BC1
:103AA0001A60013070BD72B6FEE729000848054B68
:103AB0009847ECE7CB2A0000F0180020F818002007
:103AC00080180020852A0000741800207419002036
:103AD00030190020034B1B680360034B1B684360D5
:103AE0007047C0462C1900207019002070B50600E0
:103AF0000D00002815D0002915D01A4B98471A4BF5
:103B00001A681A4B19684923CB5C002B0DD0174B50
:103B10001A6800214923D1540124154B98472000ED
:103B200070BD72B6FEE772B6FEE72B68591C16D060
:103B30007168104800683468844202D001248A42C7
:103B4000EBD2521A9A4203D300232B600124E4E7FC
:103B50009B1A2B603000084B98470024DDE70024B7
:103B6000DBE7C046652000007019002074180020B3
:103B70007D2000002C190020D53A00000122014BC5
:103B80001A60704774190020054B1B680120002B38
:103B900004D0044B18684342584140007047C04667
:103BA00044190020F018002070B5041E2CD0184BCA
:103BB0001B68984201D072B6FEE7036C002B01D15E
:103BC00072B6FEE7013B0364C26AC16B8A421DD034
:103BD0000020002B17D1251D28000E4B9847E36BC2
:103BE000E3620522D21AA2610B4A1268934201D9FC
:103BF000094A13609A00D3189B000848C01829008E
:103C0000074B9847012070BD0020FCE70020FAE731
:103C100074180020CB2A0000F8180020801800201B
:103C2000852A000010B54160006191420BD8D21A7C
:103C3000012483699A4211D2011D094B1868094B6E
:103C4000984700240AE09A4202D20124994205D200
:103C5000011D054B1868034B98470024200010BD38
:103C60007C1900209D2A00007819002070B50E4BA9
:103C700098470E4B1B68002B02D00D4B984770BD28
:103C80000C4D28000C4EB0470C4C2000B0470C4B9C
:103C90001D600C4B1C6000220C2104200A4B98472D
:103CA000024B1860E9E7C04665200000AC1900200F
:103CB0007D20000080190020692A0000941900204E
:103CC000781900207C190020492D000010B582B021
:103CD0000A4B98470A4B1B68002B0DD0094B0193E8
:103CE000022300930023502207490848084CA047AC
:103CF000002801D002B010BD72B6FEE76D3C000096
:103D0000AC190020B019002018F30000393E000063
:103D10003933000030B585B004001D00002814D0F0
:103D2000134B1868002821D00191029203940529B1
:103D300015DC104B9847022809D00D4B186800235A
:103D4000002201A90C4CA0470EE072B6FEE7084B1A
:103D500018680023089A01A9074CA04704E0002333
:103D60002A0001A9054CA04705B030BD0020FBE7A3
:103D7000AC190020893B0000912D0000492F000064
:103D8000F0B5D6464F464646C0B582B08046234B76
:103D900098478246224B1B68984217D3002342461D
:103DA00013601F4B52461A60504602B01CBC90462E
:103DB0009946A246F0BD002300933A00002120005E
:103DC000184CA047002804D172B6FEE7164D174BD9
:103DD00099462B681A68002A17D0DB681F68DC68D0
:103DE000261D3000C8472000636A9847E369012B0D
:103DF000EFD1A369FB189F42DDD2636024610A4BB7
:103E0000186831000A4B9847E3E70A4A06491068E8
:103E100008601360012342461360C2E719360000B0
:103E2000A8190020153D000078190020CB2A0000B9
:103E30009D2A00007C190020F0B589B0524F534BE9
:103E40001B681A68002A0ED0DB681C68504B984724
:103E500005A8504B98470500059B002B5FD1A04259
:103E600036D200220FE04A4B984705A8494B9847A5
:103E70000500059B002B52D1474B1B681B685A421B
:103E80005A41D2B20024611B444B1868444B9847F6
:103E9000444B984700283FD0404D434C002205A991
:103EA0002868A0470028CAD0059B0393002BF5DBA8
:103EB000079E7369002B01D0301DB84704A8354B0D
:103EC0009847059B092BE9D89B00384AD3589F4651
:103ED000344B98472D4B1B68DB68DE68301D2A4B3E
:103EE0009847F369012B03D0736A30009847D3E7F2
:103EF000B369E11823002A0030002D4DA84700289F
:103F0000F2D000230093220000213000294CA0476A
:103F10000028E9D172B6FEE7274B9847BCE7214B52
:103F20009847B9E7069BB269944663441900069B1B
:103F3000020030001E4CA0470028AED03000736A4B
:103F40009847F369012BA8D1069BB1698C4663445D
:103F50001A000023009300213000164CA0470028CF
:103F60009BD172B6FEE70699B161002906D04118CF
:103F70000300020030000E4CA0478EE772B6FEE749
:103F800030000E4B984788E7CB2A000078190020B4
:103F900009360000813D00007C190020AC1900208A
:103FA0006D3100004537000019300000F0F20000CC
:103FB000253C0000153D00004D200000912100002F
:103FC00070B50020084B98470500084CFA2189007D
:103FD000A047074B186007492800A047064B186008
:103FE0000522064B1A6070BD6D53000031C20000FF
:103FF0000400002040420F000800002010E000E014
:1040000030B5084B1C68084A002580214902013858
:1040100007D3002CFBD05460956013680B42FCD092
:10402000F5E730BD0800002010E000E030B5084B97
:104030001C68084A002580214902013807D3002C5A
:10404000FBD05460956013680B42FCD0F5E730BD9F
:104050000400002010E000E00C4B1B68002B06D190
:10406000EFF31083002B07D00022094B1A70074A88
:10407000136801331360704772B6BFF35F8F00227D
:10408000044B1A700132024B1A70F0E7B419002089
:10409000B81900200C000020084B1A68013A1A6079
:1040A0001B68002B09D1064B1B78002B05D0012281
:1040B000044B1A70BFF35F8F62B67047B4190020CB
:1040C000B81900200C000020F0B583B001AC012528
:1040D00065700027A770257021003E20064EB0476E
:1040E0008022D205054B9A612770657021000F2050
:1040F000B04703B0F0BDC046B1420000804400416B
:104100001723002A01D0180070478B00064A9B58DD
:10411000002B03D0834205D01D23F4E7890088508B
:104120000023F0E70023EEE7A03F0020172300293B
:1041300001D01800704700221F2800D8024A01232E
:104140008340D3600023F4E70018004070B50022DC
:10415000104B1A70002310491F25104E0D4C0AE019
:104160000D4908E023780133DBB223700F2B10D800
:1041700000211F2BF4D92800184001228240086931
:104180001042EFD00A619B009B59002BEAD0984760
:10419000E8E770BD9C3F002000180040A03F0020D1
:1041A000044A137802210B43137053785BB2002B3F
:1041B000FBDB70470018004000B583B0124A9369DA
:1041C00040210B43936101A900230B7005200F4B85
:1041D000984705200E4B98470E4A137801210B4350
:1041E000137053785BB2002BFBDB0B4B1900403193
:1041F000002204C39942FCD11022084B1A60084BDC
:10420000984703B000BDC04600040040855400003C
:10421000F953000000180040A03F002000E100E03A
:10422000A141000000230360436001220272427238
:1042300083720233C3727047F0B583B005000C007F
:1042400001A900234B70CB7023790B70237A8B70FC
:104250002078154B984700201F2D00D813480722BF
:104260002A409200E77AA37A002B01D008231F434B
:10427000EB089B00C31899690F269640B1439740FD
:104280003A000A439A61637A002B06D143690122FE
:10429000AA409343436103B0F0BD42690123AB40A0
:1042A00013434361F7E7C0467D5500000018004006
:1042B00000B583B001AB80221A700A785A704A7830
:1042C0009A708A78DA701900014B984703B000BDE4
:1042D0007D550000F0B5DE4657464E464546E0B5F2
:1042E00087B08046049116001F00002200230021A1
:1042F0008B463F2401202100009601975C460394E1
:104300004446059413E02024641A0500E540A846BD
:1043100014E0009C019D121BAB415C464D462C43B2
:10432000A346039C45462C430394013925D32024FE
:1043300064420C19E7D40500A540A84604008C404F
:10434000A14692185B4114001D00059E4F463E4059
:10435000B446049E47463E40B246664657463E43F4
:1043600003D00600264332002B00009C019D9D4295
:10437000DBD8CED19442D8D8CBE7039B584619005E
:1043800007B03CBC90469946A246AB46F0BD10B57E
:10439000490840230024814202D2180010BD1C00AD
:1043A000091A631C9BB28842F9D94023FF2CF4D828
:1043B00014800023F1E70000F0B583B00F00160071
:1043C00008AA117804004C434022BC4202D91000D4
:1043D00003B0F0BD002B14D1020008000021194CDD
:1043E000A04701003A0000230020174CA0470022FC
:1043F0000123121A8B41120C1B041A433280002233
:10440000E5E70022012BF9D10A00002300210D4C21
:10441000A04702000B0000920193380000210A4CD3
:10442000A047050080239B0140229842CFD8790FF6
:10443000F800009A019BA047EA00821AD2B2520308
:104440002A43DBE749C30000D542000010B582B023
:1044500004000E4B1B78002B07D0002905D10B4B15
:104460005B78834210D01D200CE001A90C70132052
:10447000074B98471320074B9847044B5C70012269
:104480001A70002002B010BD0020FBE7BC1900200C
:1044900085540000F9530000404B984231D00AD9AE
:1044A0003F4B98424DD03F4B98425AD03E4B98429A
:1044B00037D0002070473D4B98420CD03C4B98427F
:1044C000F7D1012917D000295DD0022915D0032981
:1044D00015D00020EEE7012907D0002951D002298C
:1044E00005D0032905D00020E4E73248E2E732484E
:1044F000E0E73248DEE73248DCE73248DAE73248C4
:10450000D8E7012907D000293FD0022905D0032987
:1045100005D00020CEE72D48CCE72D48CAE72D482E
:10452000C8E7012907D0002931D0022905D0032985
:1045300005D00020BEE72848BCE72848BAE728484D
:10454000B8E7012907D0002923D0022905D0032983
:1045500005D00020AEE72348ACE72348AAE723486C
:10456000A8E7012907D0002915D0022905D0032981
:1045700005D000209EE71E489CE71E489AE71E488B
:1045800098E71E4896E7032094E71D4892E71D48E8
:1045900090E71D488EE71D488CE7C046001000429A
:1045A00000180042001C00420014004200080042B3
:1045B000000C004203000500030006000300070092
:1045C0000300010003001E0003001F000300090098
:1045D00003000A0003000B00030011000300120097
:1045E0000300130003000D0003000E0003000F0082
:1045F0000300170003001800030019000300040063
:10460000030008000300100003000C000300160064
:1046100030B587B00B4B6A4632CB32C232CB32C296
:10462000009B83420BD001239A0069465258824274
:1046300006D00133062BF7D1002007B030BD002390
:10464000D8B2FAE720F3000070470000F0B50A4B3B
:104650001B78002B0CD1094F094E0A4D0024DE5166
:104660005A1914600433182BF9D10122024B1A7025
:104670008000024BC150F0BDBE190020C0190020BF
:1046800049460000E03F002000B583B009236A4698
:10469000137001335370013393700133D3700133BE
:1046A000137101335371034B98476B46185603B08F
:1046B00000BDC0461146000010B5024B1B6800202B
:1046C000984710BDC019002010B5024B5B6801204F
:1046D000984710BDC019002010B5024B9B680220FE
:1046E000984710BDC019002010B5024BDB680320AD
:1046F000984710BDC019002010B5024B1B6904205B
:10470000984710BDC019002010B5024B5B69052009
:10471000984710BDC0190020F0B5DE4657464E46FA
:104720004546E0B591B005000C0016002960080070
:10473000BC4B9847020023680520DB0706D511B063
:104740003CBC90469946A246AB46F0BD2368173064
:104750009B07F4D4B449086A971C0123BB40034368
:104760000B620FA92D27F35D0B701432D3B20293A5
:104770001800AE4B98470298AD4B9847F05D00216A
:10478000AC4B9847F37A6B712423F35CAB71252310
:10479000F35CEB71F37E2B72337F6B722B68984660
:1047A0001800A04B9847143000220E2306A98C460F
:1047B00063441A80328A02928023DB019A4200D13C
:1047C0009EE00FD9C023DB01029A9A4200D192E009
:1047D00080231B029A4200D01FE10323069300238B
:1047E000079308E080239B019A4200D015E1102333
:1047F00006930F3B079333680593F368039373693C
:104800000493337E9B462623F35C9A46736899464D
:10481000002B00D1A0E080235B05994500D184E006
:10482000737E002B02D0B37E424693732A68029FA8
:10483000D369002BFCD10E3306AA944663441B882F
:1048400042469381059B039A1343049A13434A46B5
:1048500013431F435B461B021F4353465B071F4323
:104860002723F35C002B01D104331F43737E9B028B
:10487000327F52021343727F120213432422B25C2E
:10488000520413432522B25C12041343B17AF27A24
:10489000114319433389FF2B00D181E08022520458
:1048A000174319432C23F35C002B03D1624B9B78F5
:1048B0009B0701D580231F432A68D369002BFCD1B5
:1048C000434659602A68D369002BFCD143461F60D8
:1048D0000EAB80221A7000225A70DA709A70336B15
:1048E0000A93736B0B93B36B0C93F36B02930D935F
:1048F00000270AAE63E008230693073B07937AE795
:1049000033680593F368039373690493337E9B467E
:104910002623F35C9A4673689946002B18D08023AF
:104920005B05994501D0002025E02723F35C002B8F
:1049300000D075E7336A1F00C0B2404B98470100B2
:104940000E2206AB9C46624438003D4B984712E06D
:1049500008230693002307932723F35C002B0ED034
:10496000069B0093079B0E2206A98C466244B16AFF
:10497000306A344FB847002800D0E0E650E7336A89
:104980001F00C0B22D4B98470100069B0093079B68
:104990000E2206A88446624438002A4FB847EAE748
:1049A000F37E002B00D17DE78023DB041F4379E7F2
:1049B0002000254B984707E00137042F0DD0F9B2AE
:1049C000BB0098590028F3D0431CF5D00EA90870FD
:1049D000000CC0B21D4B9847EEE70023EB602B6143
:1049E0006B61AB61EB612B62AB626B620022EB85AA
:1049F000AB853033EA540133EA540133EA540133CE
:104A0000EA542868074B984704001149114B98470E
:104A1000A400114BE550002091E6102306930023DB
:104A20000793E8E6114600000004004085540000AA
:104A3000F95300004D44000000200041A154000043
:104A40008F430000B9430000994400007D550000E9
:104A5000814C00004D460000E03F0020C2791C233D
:104A6000002A01D118007047C28D92B2173B002A6C
:104A7000F8D10368DA69002AFCD1198502211A7E6F
:104A80000A42FCD00023EDE782791C23002A01D1E1
:104A900018007047828D92B2173B002AF8D1026845
:104AA000107E4007F4D5D369002BFCD1538BDBB2C9
:104AB00098061DD0980703D5022353831833E7E7E0
:104AC000580703D5042353831A33E1E7D80703D5E6
:104AD000012353831233DBE7D80603D51023538316
:104AE0003233D5E79B0603D5202353832133CFE709
:104AF000138D0B800023CBE7F0B5D64600B584B00C
:104B0000040001911720002A03D104B004BC92468E
:104B1000F0BDA3790530002BF7D02668013A93B297
:104B20009A460025042719E0002302AAD380911D8C
:104B30002000154B98470028E7D1691C89B202ABC9
:104B4000DB88019A53556279012A14D00D0053462F
:104B5000013B9BB29A460D4B9A45D6D0337E3B42E1
:104B6000E2D10A4B327E3A42DED1012B09D0013B21
:104B7000002BF7D1D8E70235ADB21B0A019A535486
:104B8000E5E71220C1E7C046894A0000FFFF0000A8
:104B9000F8B506000C00150007680A4B9847F38D1E
:104BA0009BB2002B03D0084B98470520F8BDF58534
:104BB000054B9847B46205223323F254323BBB7550
:104BC0000020F3E75940000099400000F8B50400C8
:104BD0000D00160007680F4B9847A38D9BB2002B62
:104BE00003D00D4B98470520F8BDA6850A4B984782
:104BF000656205223223E2542E3BBB75237A002BDB
:104C000001D02023BB75637A0020002BECD0082351
:104C1000BB75E9E75940000099400000931C9B00D8
:104C2000C31859603021012393401A00435C134399
:104C30004354704710B50122014B984710BDC04640
:104C4000CD4B000010B51723002A01D1180010BD6C
:104C5000C4790533002CF9D0014B98470300F5E7E0
:104C6000914B0000002903D0012905D0172002E054
:104C70003223C05CC0B270473323C05CC0B2FAE7D5
:104C8000F8B58000624BC5582C68E369002BFCD155
:104C9000237EA67D1E403023EB5C3122AF5C1F409B
:104CA000F30722D5EB8D9BB2002B1CD0AA6A137898
:104CB000DBB2511CA962697901290ED09BB2DB05D8
:104CC000DB0D2385EB8D013B9BB2EB85002B0CD1DB
:104CD000013323750133A37507E0517809020B43B3
:104CE0000232AA62EBE701232375B30706D502233C
:104CF000237500223133EA54FB071AD4730765D5B4
:104D0000AB8D9BB2002B5FD0638BDBB21A0714D440
:104D10003F221340002B34D09A0711D51A22322398
:104D2000EA54303B63837B0750D528006B69984772
:104D30004CE02800EB689847E0E737221340E9E7AA
:104D40005A0705D51E223223EA542E3B6383EAE735
:104D5000DA0705D513223223EA54313B6383E2E7B5
:104D6000DA0605D542223223EA54223B6383DAE78E
:104D700020221A42D7D021323223EA54123B6383D5
:104D8000D1E7238DDB05DB0DDAB2696A0A706A6A46
:104D9000511C69626979012910D0AB8D013B9BB22E
:104DA000AB85002B12D10433237500222E33EA5435
:104DB000BB070BD528002B69984707E01B0A5370E7
:104DC0006B6A01336B62E8E704232375F30604D5AD
:104DD000102323752376FB060ED4B30604D52023B7
:104DE000237523763B070BD4330704D5082323759B
:104DF0002376BB0608D4F8BD2800EB699847ECE79A
:104E00002800AB699847EFE72B6A28009847F2E73C
:104E1000E03F002010B5082803D880001C4B1B5829
:104E20009F46002032E01B4B18692FE01A4B1B6A8B
:104E30009B059B0F1948D84028E0164B586925E080
:104E4000144B1B6800209B0720D513491022CB6808
:104E50001A42FCD00F4B1A6824231340042B01D0B4
:104E60000F4813E000200F4B98470A4B9B681B0428
:104E70001B0C58430AE05023074AD35C00205B0711
:104E800004D5044BD86801E08020000210BDC04664
:104E900038F30000D81900200008004000127A0002
:104EA000006CDC02A154000070B50C490B6A047858
:104EB000857840780122104080014026B3430343A7
:104EC0002A40D2018020834313430322224012024E
:104ED0000348034013430B6270BDC0460008004006
:104EE000FFFCFFFFF0B5DE4657464E464546E0B5AF
:104EF0000100264B9B469B8A4578007842424241FE
:104F000091468878CA7894460A7990464E7B0F7B02
:104F10008C7B8A681E494A6101214A46920091466B
:104F2000042293434A46134342460A40D200904625
:104F3000082293434246134362460A4012019446B4
:104F400010229343624613430840400120229343BA
:104F500003430F40BF01402083433B430E40F60113
:104F6000403083433343793805402D0209480340DC
:104F70002B4321400903084803400B435A469382C0
:104F80003CBC90469946A246AB46F0BD00080040A6
:104F9000D8190020FFF8FFFFFFEFFFFF10B5037ADD
:104FA0009B061B0C42899205920D134318494B60D6
:104FB0008379C27913434288848822431343427819
:104FC000D20113430B600378042B11D0202B0ED198
:104FD000037B9B06028A1343C28912040D490A40CF
:104FE00013430B4A936011680B4B0B43136010BDC6
:104FF000037B9B06028A1343C289120405490A40B7
:105000001343034A9360136804210B431360EEE7D4
:10501000D81900200000FF0324040000082803D84A
:105020008000254B1B589F46172044E0234A136AF3
:1050300002210B43136200203DE0204A93690221C4
:105040000B439361002036E01C4A138A02210B4374
:10505000138200202FE0194A938A02210B43938286
:10506000002028E016490B68022213430B60134B03
:105070009A8419000E32CB681A42FCD0104A91680B
:105080000E4BD96252689A6200229A84190010323B
:10509000CB681A42FCD00A4B1B689BB2074A938428
:1050A000002008E0054944228B5C022003438B5416
:1050B000002000E0002070475CF300000008004082
:1050C000D8190020F0B5CE46474680B58FB0C22231
:1050D000D200514B9A60514A53681E218B431A39B2
:1050E0000B435360022201AB1A7000244C4DE0B216
:1050F00001A9A8470134252CF9D10AA8002303707F
:105100008370802212028260C37001220271837355
:105110000621417043730273424B98470520424B6E
:1051200098473D490222CB681A42FCD005AB0021CA
:105130000022598099809A71DA713F3159813E3944
:10514000D981033119705A70384B1B689B0E3F2B65
:105150005FD005A80372B723DB0003820723037324
:10516000334B984704A80025457005708570314B76
:10517000984706202C4FB8472F4B984701AC012683
:105180000296657006232370257265722100012046
:105190002A4B994698470120294B984698476660C4
:1051A0006570657205232370267221000320C847AD
:1051B0000320C0470323237021000020184B984789
:1051C0000020204B98470720B8471349D022CB68CE
:1051D0001340D02BFBD1104A938C80210B43938436
:1051E000194A0023137253729372D37201A90122D8
:1051F0004A604B700B7207330B704A7200200F4BE2
:10520000984700200E4B98470FB00CBC904699462B
:10521000F0BD203B9DE7C046000800400040004133
:1052200085540000E54E00001D5000002460800001
:105230009D4F0000A94E00004D5200007152000029
:1052400029530000F953000000040040064A936906
:1052500008210B4393610122044B1A7019000B784B
:105260001342FCD17047C04600040040000C0040CF
:1052700070B5060004000D782D0205434B78002B15
:1052800002D08023DB021D434B7A002B02D0802307
:105290001B031D434868012810D9431E184234D10E
:1052A000022830D90223002201325B009842FBD849
:1052B00012023243140080235B031D430B7A002B40
:1052C00002D080239B031D43134A53785BB2002B0B
:1052D000FBDB124B9847124B1E700F4A53785BB2A0
:1052E000002BFBDB0C4B9C601A0053785BB2002B4D
:1052F000FBDB094A5368802149020B401D4355607E
:10530000084B984770BD0022D2E704023443802343
:105310009B021D43D2E7C046000C004059400000EC
:10532000080C00409940000010B504000B4A537867
:105330005BB2002BFBDB0A4B98470A4B1C70074AF9
:1053400053785BB2002BFBDB044A516880235B027D
:105350000B435360044B984710BDC046000C0040FF
:1053600059400000040C00409940000070B5040052
:105370001A4A53785BB2002BFBDB194B9847194B49
:105380001C70164A53785BB2002BFBDB134E70681F
:10539000C004C00E144B98470500124B1C70766871
:1053A000F602F60F114B1C700C4A53785BB2002BBF
:1053B000FBDB0A4B9C682402240C0D4B9847002E03
:1053C00007D1012C07D9210028000A4B9847050076
:1053D00001E00134E540280070BDC046000C0040EB
:1053E00059400000040C0040154E0000080C00401D
:1053F0009940000031C2000010B50400064B9847E8
:10540000064B1C70064A53888021C9010B43538008
:10541000044B984710BDC04659400000020C0040A4
:10542000000C00409940000010B504000F4B984755
:105430000F4B1C700F4A53881B05180F53880E49D9
:105440000B40538053880D490B405380110080223C
:10545000D2014B881342FCD106494A880302064810
:10546000024013434B80064B984710BD5940000043
:10547000020C0040000C0040FFF0FFFFFFBFFFFFE9
:105480009940000010B50C7824020443024B984761
:10549000A4B2024B5C8010BD29540000000C0040F7
:1054A00010B50400064B9847064B1C70064B5C88F1
:1054B0002405240F054B98472000054B984710BD45
:1054C00059400000020C0040000C004099400000D0
:1054D0006D53000030B5D378002B35D11378802B75
:1054E00029D01B0680246402234354780225AC4350
:1054F00006D19478002C20D18024A402234341605B
:105500005478013C012C1CD90D042D0CA024E40579
:105510002C431C4384620D0CD02424062C431C43D2
:105520008462D478002C22D15B031CD59378012BA4
:105530001ED0416117E00023D7E7C024E4022343D3
:10554000DDE70D4C2340DFE741600C04240CA02371
:10555000DB05234383620C0CD0231B0623438362A9
:10556000D378002B03D15378013B012B02D930BDF6
:105570008161F8E78160FAE7FFFFFBFF10B50A00E1
:10558000C1090023002904D14309DB0105498C46E8
:1055900063441F242040012181401800024B98479A
:1055A00010BDC04600440041D554000070470000C3
:1055B00010B5054B9847054B9847054B9847054B49
:1055C0009847054B984710BDC5500000C9400000E2
:1055D000AD550000B9410000AD550000931C9B0083
:1055E0001950022A09D0032A0CD0012393401A0033
:1055F000037E1343037600207047037E102213437B
:105600000376F8E7037E202213430376F3E70000D6
:1056100070B58000164BC45823689D7B227E637E44
:1056200013401D40EB0706D4AB070BD4EB0610D498
:10563000AB0615D470BD2000A368984701232268EB
:105640009373F1E72000E36898470223226893737D
:10565000ECE7200023699847102322689373E7E75B
:10566000200063699847236820229A73E2E7C046C6
:10567000F83F002010B50020014B984710BDC046F0
:105680001156000010B50120014B984710BDC046CF
:105690001156000010B50220014B984710BDC046BE
:1056A0001156000010B50320014B984710BDC046AD
:1056B0001156000010B50420014B984710BDC0469C
:1056C0001156000030B587B001A90C4B0A0032CB4F
:1056D00032C212CB12C2019B98420BD0012301A906
:1056E0009A005258824206D00133052BF8D100208F
:1056F00007B030BD0023D8B2FAE7C04680F30000FF
:10570000F0B589B004000D0016000800854B9847DD
:10571000070006AB1B221A7001325A709A700132D0
:10572000DA701A7103AA804B143303CB03C21B88AF
:1057300013800023A360E3602361636123766376B3
:10574000BA007A4BD4502560B378082B06D0237169
:105750002B880520DB0705D509B0F0BD1720FA0717
:10576000FAD5F4E7EB7B1730DB06F5D42B889B07E3
:10577000F2D4337C002B79D1337F002B00D081E031
:105780006B49086A7A0003ABD35A03430B62B378C0
:10579000082B00D186E001A933780B7006ABDF5DE2
:1057A0003800644B98473800634B98473189B38879
:1057B0000B43B178B279114319437378002B02D0AF
:1057C00080231B0119432268D37B5BB2002BFBDBD8
:1057D0002980717B4B1E99418900B37B002B01D03E
:1057E000012319432268D37B5BB2002BFBDBFF2331
:1057F0002B71002905D02268D37B5BB2002BFBDB29
:105800006971B17AF37A002B01D010231943337BED
:10581000002B01D0202319432268D37B5BB2002BDD
:10582000FBDBA9712268D37B5BB2002BFBDB237906
:10583000042B3FD0082B5ED01720002B00D08BE725
:10584000D37B5BB2002BFBDB338D2B822268D37BB7
:105850005BB2002BFBDB738D2B832268D37B5BB2A7
:10586000002BFBDBB38D6B83002075E702A90123BE
:105870008B700022CA70327E0A704B70307D2F4BC5
:10588000984779E702A901238B700022CA7024325D
:10589000B21812780A704B701F33F3181878274B20
:1058A00098476DE7086A7A1C520003ABD35A03434A
:1058B0000B6270E7D37B5BB2002BFBDB2823F35C2E
:1058C0002B742268D37B5BB2002BFBDB2923F35CB8
:1058D0002B752268D37B5BB2002BFBDB2A23F35CA6
:1058E0002B762268D37B5BB2002BFBDB2B23F35C94
:1058F0006B76002030E7D37B5BB2002BFBDBB36A17
:105900002B612268D37B5BB2002BFBDBF36AAB61BC
:105910002268D37B5BB2002BFBDB336BEB61002097
:105920001AE7C046C556000080F30000F83F00208B
:105930000004004085540000F95300007D5500002C
:105940000268D37B5BB2002BFBDB0379042B05D011
:10595000082B0BD01720002B04D07047C9B211744C
:105960000020FAE789B211820020F6E711610020D9
:10597000F3E70268D17B1523C90601D518007047EB
:1059800013889B070FD5D37B5BB2002BFBDB3B233C
:1059900013739373138802218B4313800168CB7BAD
:1059A0005BB2002BFBDB138801210B431380002328
:1059B000E4E7FEE7F8B52A4A2A4B9A4211D01A00CA
:1059C000294B9A420DD2294A03339B1A9B08013373
:1059D0009B000022234822498C58845004329A426A
:1059E000FAD1234A234B9A420AD2D34321495B1866
:1059F00003218B4304339B18002102C29342FCD144
:105A00001D4AFF211D4B8B439360FD3990235B00A2
:105A10001B4AD1501B4AD3780325AB4302242343AE
:105A2000D370D3780C27BB4308263343D370164B6F
:105A3000987B30229043202210439873997BB9437E
:105A4000314399739A7BAA4322439A730F4A53684E
:105A500080210B4353600E4B98470E4B9847FEE74F
:105A60004C3501000000002030010020040000201F
:105A7000300100206052002000ED00E00000000036
:105A800000700041005000410048004100400041CA
:105A9000E9DC0000B17F0000F0B5C64600B50C009F
:105AA000904600280FD1002A11DD8F18094E0A4DAB
:105AB000306821002B6898470134BC42F8D1404639
:105AC00004BC9046F0BD01235B429846F7E7804650
:105AD000F5E7C046144000200C400020F0B5C64653
